:020000040800F2
:1000000040080020CD0100088D070008C904000841
:10001000DD06000815030008531B0008000000005F
:10002000000000000000000000000000490A000875
:100030006103000800000000390800085D0B00089B
:10004000E7010008E7010008E7010008E7010008F0
:10005000E7010008E7010008E7010008E7010008E0
:10006000E7010008E7010008E7010008E7010008D0
:10007000E7010008E7010008E7010008E7010008C0
:10008000E7010008E7010008E7010008E7010008B0
:10009000E7010008E7010008E7010008E7010008A0
:1000A000E7010008E7010008E7010008E701000890
:1000B000E7010008010E0008090F0008E701000829
:1000C000E7010008E7010008E7010008E701000870
:1000D000E7010008B51700083D1800082D190008B1
:1000E000E7010008E7010008E7010008E701000850
:1000F000E7010008E7010008E7010008E701000840
:10010000E7010008E7010008C10F0008E701000847
:10011000E7010008E701000859110008E70100089D
:10012000E7010008E7010008E7010008E70100080F
:1001300000F002F800F03AF80AA090E8000C8244BF
:100140008344AAF10107DA4501D100F02FF8AFF29C
:10015000090EBAE80F0013F0010F18BFFB1A43F0A5
:1001600001031847E0290000002A0000103A24BFCC
:1001700078C878C1FAD8520724BF30C830C144BF0C
:1001800004680C607047000000230024002500264E
:10019000103A28BF78C1FBD8520728BF30C148BFEA
:1001A0000B6070471FB51FBD10B510BD00F06EF895
:1001B0001146FFF7F7FF01F025FF00F0A0F803B4A8
:1001C000FFF7F2FF03BC01F0C6FC000009488047BE
:1001D00009480047FEE7FEE7FEE7FEE7FEE7FEE729
:1001E000FEE7FEE7FEE7FEE704480549054A064B41
:1001F00070470000610B0008310100084002002038
:100200004008002040040020400400207047000007
:100210000FB4044910B503AA029800F009F810BC05
:100220005DF814FB2C000020704770477047704742
:10023000074B70B50D467B4400F011F80446284684
:1002400000F020F810B14FF0FF3070BD204670BDB7
:10025000D31C000001694A1C02610878704700B590
:100260008FB0CDE901310021059105497944CDE9EF
:1002700003101146684600F02EF80FB000BD0000D4
:10028000E5FFFFFF007B00F080007047754600F03F
:100290003DF8AE4605006946534620F00700854606
:1002A00018B020B5FFF7A0FFBDE820404FF00006D2
:1002B0004FF000074FF000084FF0000B21F007014E
:1002C000AC46ACE8C009ACE8C009ACE8C009ACE891
:1002D000C0098D4670472DE9F04106460024D6E955
:1002E0000170F5688046304603E04146B847641C1B
:1002F0003046A8470028F8D12046BDE8F0810446E2
:10030000AFF300802046FFF75AFF00000048704717
:10031000DC01002000BFFEE708B50121082000F045
:10032000ADFA4FF47040ADF8000010208DF80300D6
:1003300003208DF802006946044800F01FF84FF4CE
:100340007041024800F0A5F808BD0000000C014013
:1003500010B50021014800F019FF10BD0010004049
:100360007047002107E0002201E0531C9AB2092ADD
:10037000FBDB4B1C99B28142F5DB70472DE9F04164
:10038000024600250026002000230024002791F8C3
:1003900003C00CF00F0591F803C00CF0100CBCF179
:1003A000000F03D091F802C04CEA050591F800C097
:1003B000BCF1000F31D0146800202BE04FF0010C8D
:1003C0000CFA00F3B1F800C00CEA03069E4220D1FB
:1003D00083004FF00F0C0CFA03F7BC4305FA03FC43
:1003E0004CEA040491F803C0BCF1280F06D14FF089
:1003F000010C0CFA00FCC2F814C00AE091F803C02A
:10040000BCF1480F05D14FF0010C0CFA00FCC2F80A
:1004100010C0401C0828D1D31460B1F800C0BCF152
:10042000FF0F34DD546800202EE000F1080C4FF07F
:10043000010808FA0CF3B1F800C00CEA03069E426A
:1004400021D183004FF00F0C0CFA03F7BC4305FADF
:1004500003FC4CEA040491F803C0BCF1280F05D159
:1004600000F1080C08FA0CF8C2F8148091F803C0E7
:10047000BCF1480F07D100F1080C4FF0010808FA51
:100480000CF8C2F81080401C0828CED35460BDE898
:10049000F0814161704701617047000010B500BFF5
:1004A000074800884FF47A7100FB01F4054800F01A
:1004B00070FF0444002003498884204610BD0000DA
:1004C000400000200010004000BFFEE72DE9F04F83
:1004D00089B0002008900026814683460425002428
:1004E0004FE038E00120374908601420FFF739FF5A
:1004F00000203549C1F8940100BFA01D324901EB2D
:100500008000D0F800010028F7D000F083F9761CB5
:1005100000BFA01D2C4901EB8000D0F8000101288C
:10052000F7D0FFF715FFFFF7B9FF0890089802F022
:10053000CFF9019002F070F80022244BCDE90201BE
:1005400001F0BEFE074601F089FE81465946484645
:1005500002F08EF88346052EC4DB584602F05CF8A4
:1005600000221B4BCDE9020101F0AAFE074601F073
:1005700075FE814604A840F824900026B146B34693
:10058000641CAC42ADDB294604A801F08BFDAA1E19
:1005900004AB53F822106A1E53F8220002F068F8E8
:1005A0008046E81E04AA52F82010404602F060F887
:1005B0000746084902F0CAF88246504609B0BDE82D
:1005C000F08F0000948121420080214200004D40C4
:1005D00000001440000040401FB50121082000F039
:1005E0004DF92020ADF8000003208DF80200102006
:1005F0008DF8030069461E48FFF7C0FE20211C4805
:10060000FFF747FF4020ADF8000004208DF80300FD
:1006100069461748FFF7B2FE40211548FFF739FF3A
:100620000121102000F00AF9124800F0BBFD40F251
:10063000E730ADF808004720ADF804000020ADF821
:100640000A00ADF8060001A90A4801F061F801218D
:10065000084800F095FD01221146064800F004FF0D
:1006600001F08EFC0021034800F090FD1FBD00004A
:10067000000C01400010004008B50121042000F0EA
:10068000FDF80121202000F0F9F84FF48070ADF85A
:10069000000003208DF8020010208DF80300694649
:1006A0000C48FFF76BFE4FF480710A48FFF7F3FE2A
:1006B0000420ADF8000003208DF8020010208DF812
:1006C000030069460448FFF759FE04210248FFF77A
:1006D000E2FE08BD000801400014014000BFFEE733
:1006E00000B587B00121880400F0A8F80121082096
:1006F00000F0C4F818208DF81B004FF48060ADF8AE
:10070000180001208DF81A0006A91E48FFF736FED2
:1007100004208DF81B004002ADF8180001208DF870
:100720001A0006A91748FFF729FE4FF41650029049
:100730000020ADF814000C20ADF812000020ADF838
:100740001000ADF80E00ADF80C0002A90E4801F043
:100750008BF901210C4801F01EF9012240F22551CC
:10076000094801F05BF927208DF8040001208DF87D
:1007700007008DF805008DF8060001A800F008F8C4
:1007800007B000BD000C0140004800407047000069
:1007900070B5002100230F22C47804B3154C2468DF
:1007A00004F4E064C4F5E064210AC1F10403CA4022
:1007B000447804FA03F184781440214309010E4C73
:1007C0000678A155047804F01F050124AC40057893
:1007D0006D11AD0005F1E025C5F8004109E0047890
:1007E00004F01F050124AC40044D0678761145F84D
:1007F000264070BD0CED00E000E400E080E100E088
:1008000002490143024A1160704700000000FA05E6
:100810000CED00E010B50021054800F04AFF002073
:10082000044908800121024800F0B0FC10BD00001E
:1008300000100040400000207047000029B1064A27
:10084000D2690243044BDA6104E0034AD26982436D
:10085000014BDA61704700000010024029B1064ADE
:1008600012690243044B1A6104E0034A126982438D
:10087000014B1A61704700000010024029B1064A7E
:1008800092690243044B9A6104E0034A92698243ED
:10089000014B9A61704700000010024029B1064ADE
:1008A000D2680243044BDA6004E0034AD268824310
:1008B000014BDA60704700000010024030B50021A3
:1008C0000022002400232D4D6D6805F00C0121B19C
:1008D000042905D0082923D105E0294D056022E02F
:1008E000274D05601FE0254D6D6805F47012234DFE
:1008F0006D6805F48034022505EB92421CB9214D48
:10090000554305600BE01D4D6D6805F400351DB1C4
:100910001C4D5543056002E0194D5543056002E04A
:10092000174D056000BF00BF144D6D6805F0F00164
:100930000909154D6B5C0568DD4045600F4D6D681C
:1009400005F4E061090A104D6B5C4568DD40856087
:100950000A4D6D6805F46051C90A0B4D6B5C456822
:10096000DD40C560054D6D6805F44041890B074DBC
:100970006B5CC568B5FBF3F5056130BD0010024046
:1009800000127A0000093D0014000020240000201D
:1009900000B589B001210420FFF770FF0121082074
:1009A000FFF74CFF0220ADF8200028208DF823002F
:1009B00003208DF8220008A92148FFF7DFFC02215F
:1009C0001F48FFF768FD42F21070ADF81400472091
:1009D000ADF810000020ADF81600ADF8120004A923
:1009E000184800F095FE0420ADF804000020ADF892
:1009F00006000120ADF808000020ADF80A00032031
:100A0000ADF80C0001A90F4800F0D8FC01210D48F9
:100A100000F0BCFB32208DF81C0001208DF81D0079
:100A200003208DF81E0001208DF81F0007A8FFF796
:100A3000AFFE01220521034800F016FD09B000BDFC
:100A400000080140000C0040704710B500F002F8AB
:100A500010BD00000CB500200190009033480068E4
:100A600040F480303149086000BF3048006800F42D
:100A7000003000900198401C0190009818B901982E
:100A8000B0F5A06FF1D12948006800F4003010B132
:100A90000120009001E0002000900098012843D13F
:100AA0002348006840F010002149086008460068AB
:100AB00020F0030008600846006840F0020008606B
:100AC0001A48406819494860084640684860084626
:100AD000406840F4806048600846406820F47C101C
:100AE00048600846406840F4E810486008460068DE
:100AF00040F08070086000BF0C48006800F0007093
:100B00000028F9D00948406820F0030007494860F0
:100B10000846406840F00200486000BF0348406853
:100B200000F00C000828F9D10CBD000000100240B4
:100B300000200240042808D14FF0E021096941F06B
:100B400004014FF0E022116107E04FF0E021096954
:100B500021F004014FF0E02211617047704700005E
:100B600010B51348006840F00100114908600846BC
:100B70004068104908400E494860084600680E4920
:100B800008400B4908600846006820F4802008608F
:100B90000846406820F4FE0048604FF41F0088605B
:100BA000FFF753FF4FF000600449086010BD0000DC
:100BB000001002400000FFF8FFFFF6FE08ED00E025
:100BC000F0B50C46154600220021068C4FF6FE7744
:100BD0003E400684028B018C4FF60C7632407E1C20
:100BE00006EA03162E433243104EB0420ED0104E8A
:100BF000B0420BD0B0F1804F08D00E4EB04205D0BD
:100C00000D4EB04202D00D4EB04206D14FF6FD76E9
:100C1000314044F00106314305E04FF6F5763140AE
:100C200044F00106314302830184F0BD002C0140F1
:100C3000003401400004004000080040000C004067
:100C4000F0B50C461546002200210026078C4FF611
:100C5000EF7C07EA0C070784028B018C4FF6FF77C5
:100C600007EA041640F6FF473A404FF6FF7707EAD7
:100C700003373A434FF6FF7707EA05273A43114F08
:100C8000B8420ED0104FB8420BD0B0F1804F08D010
:100C90000E4FB84205D00E4FB84202D00D4FB842A9
:100CA00006D14FF6DF77394046F01007394305E0AB
:100CB0004FF65F77394044F01007394302830184CF
:100CC000F0BD0000002C0140003401400004004051
:100CD00000080040000C0040F0B50C46154600220C
:100CE00000210026078C4FF6FF6C07EA0C070784EB
:100CF000828B018C4FF6FF7707EA04264FF60C77BC
:100D00003A404FF6FF7707EA03172F433A43114F54
:100D1000B8420ED0104FB8420BD0B0F1804F08D07F
:100D20000E4FB84205D00E4FB84202D00D4FB84218
:100D300006D14FF6FF57394046F48077394305E036
:100D40004FF2FF57394044F480773943828301845E
:100D5000F0BD0000002C01400034014000040040C0
:100D600000080040000C0040F0B50C46154600227B
:100D700000210026078C4EF6FF7C07EA0C0707844B
:100D8000828B018C4FF6FF7707EA043640F6FF4767
:100D90003A404FF6FF7707EA05273A434FF6FF77C9
:100DA00007EA03373A43114FB8420ED0104FB8420A
:100DB0000BD0B0F1804F08D00E4FB84205D00E4F87
:100DC000B84202D00D4FB84206D14DF6FF773940F8
:100DD00046F48057394305E047F6FF57394044F45D
:100DE0008057394382830184F0BD0000002C01400C
:100DF000003401400004004000080040000C0040A6
:100E000010B50121094800F0C7FA70B10121074867
:100E100000F0B9F90648006808B9012000E0002098
:100E20000349086003A0FFF7F3F910BD0004004078
:100E30008881224264696E67736869716920330032
:100E400030B589B005460C4601210220FFF7F6FCBB
:100E500001210420FFF712FD01210820FFF70EFDFC
:100E6000C020ADF8200018208DF8230003208DF855
:100E7000220008A92148FFF781FA0120ADF82000DF
:100E800018208DF8230003208DF8220008A91C48A3
:100E9000FFF774FAADF81850ADF814400020ADF823
:100EA0001A00ADF8160005A9164800F031FC7020B4
:100EB000ADF804000020ADF80C000120ADF80600EC
:100EC00001A9104800F030FB01A90E4800F0D6FA45
:100ED00001A90C4800F094FB08210A4800F083FBAC
:100EE0000821084800F016FB0821064800F0D8FB4E
:100EF0000121044800F04AF909B030BD0008014062
:100F0000000C01400004004010B50121104800F021
:100F100043FAD8B101210E4800F035F90D480068B8
:100F200008B9012000E000200A490860FFF7CEFA66
:100F300004464FF08141204601F0DEFC03D8012039
:100F40000549086002E000200349086010BD000068
:100F500000080040A0012142440000201FB50121EB
:100F60000420FFF76BFC41F28730ADF8080040F237
:100F7000CE20ADF804000020ADF80A00ADF8060060
:100F800001A90E4800F0C4FB012211460B4800F0F5
:100F90006BFA1E208DF8000000208DF80100032060
:100FA0008DF8020001208DF803006846FFF7F0FB82
:100FB0000121024800F0EAF81FBD000000080040CF
:100FC00010B501215E4800F0E7F9F8B15D480078FE
:100FD00000F08000D0B15B48007820F01000594943
:100FE00008700846007800F00F0020B90846007825
:100FF00040F0400008705348007800F00F000E28C1
:1010000005DA50480078401C4E4908700AE04D4807
:10101000007820F080004B4908700846007800F006
:10102000F00008700421464800F0B6F9002810D0FE
:101030004548006870B10221414800F0C7FA00211C
:101040003F4800F036FB3F48007840F010003D4933
:10105000087070E03A4800F099F93C490880002196
:10106000374800F0B3FA3748007800F01000002845
:101070005BD03448007800F08000E8B33348008843
:10108000B0F5967F0DDD31480088B0F5487F08DA6D
:101090002F48006840002E49086008460068086034
:1010A00043E02A480088B0F5AF6F0FDD274800887D
:1010B000B0F5E16F0ADA264800684000244908606C
:1010C0000846006840F0010008602EE01F480088D4
:1010D00040F69801884228DD1C48008840F6282107
:1010E000884222DA1B480078401C1A4908701548CB
:1010F000007800F0F00000E002E01249087014E00F
:101100001248008841F2680188420EDD0F480088CD
:1011100041F25C21884208DA0A48007840F08000F9
:101120000849087000200B4908700648007820F034
:101130001000044908700521014800F021F810BD95
:10114000000C004034000020040121423600002041
:10115000380000203C00002010B50121064800F0B6
:101160001BF940B10121044800F00DF80348008844
:10117000401C0249088010BD0010004040000020C3
:10118000CA4302827047CA430282704721B1028873
:1011900042F00102028004E002884FF6FE731A401A
:1011A0000280704710B504466848844208D1012186
:1011B000C014FFF773FB0021E014FFF76FFBC4E0DE
:1011C000B4F1804F08D101210846FFF747FB002109
:1011D0000120FFF743FBB8E05D48844208D10121BC
:1011E0000220FFF73BFB00210220FFF737FBACE0BA
:1011F0005848844208D101210420FFF72FFB002129
:101200000420FFF72BFBA0E05348844208D10121C2
:101210000820FFF723FB00210820FFF71FFB94E0C5
:101220004E48844208D101211020FFF717FB00210E
:101230001020FFF713FB88E04948844208D10121C0
:101240002020FFF70BFB00212020FFF707FB7CE0AD
:101250004448844208D101214014FFF71FFB0021BC
:101260006014FFF71BFB70E03F48844209D1012165
:10127000C804FFF713FB00214FF40020FFF70EFB1B
:1012800063E03A48844209D101210805FFF706FBD3
:1012900000214FF48010FFF701FB56E034488442F0
:1012A00009D101214805FFF7F9FA00214FF4001098
:1012B000FFF7F4FA49E02F48844208D10121402089
:1012C000FFF7CCFA00214020FFF7C8FA3DE02A489A
:1012D000844208D101218020FFF7C0FA002180203C
:1012E000FFF7BCFA31E02548844208D1012180157E
:1012F000FFF7B4FA0021A015FFF7B0FA25E0204867
:10130000844209D101210804FFF7C8FA00214FF4F3
:101310008030FFF7C3FA18E01A48844209D101214E
:101320004804FFF7BBFA00214FF40030FFF7B6FA8C
:101330000BE01548844208D101218804FFF7AEFA7A
:1013400000214FF48020FFF7A9FA10BD002C0140C6
:101350000004004000080040000C00400010004065
:101360000014004000340140004C01400050014096
:101370000054014000180040001C004000200040C4
:101380000040014000440140004801400146088FF0
:1013900070470146888C704730B502460020002314
:1013A0000024158A05EA0103958905EA010413B1B1
:1013B0000CB1012000E0002030BD000070B50546F2
:1013C0000C46244885420ED0234885420BD0B5F107
:1013D000804F08D02148854205D02148854202D05F
:1013E0002048854200D100E000BF208850B9238901
:1013F000A28861882846FFF7E3FBE188284600F0D1
:101400005AF925E0208804280AD12389A288618816
:101410002846FFF715FCE188284600F055F917E04B
:10142000208808280AD12389A28861882846FFF7E6
:1014300053FCE188284600F054F909E02389A2888A
:1014400061882846FFF790FCE188284600F052F9B1
:1014500070BD0000002C0140003401400004004039
:1014600000080040000C00401AB183890B438381BF
:1014700002E083898B4383817047000070B50024AC
:1014800000220023058C4FF6FE7635400584028C41
:101490008388048B4FF68F752C40B51E2C400D8829
:1014A0002C43751E2A400D892A434D882A43144D2A
:1014B000A8420BD0134DA84208D0134DA84205D026
:1014C000124DA84202D0124DA84213D14FF6F77523
:1014D0002A404D892A434FF6FB752A408D882A43BE
:1014E0004FF6FF652B404FF6FF552B408D892B4360
:1014F000CD892B4383800483CD888586028470BD8B
:10150000002C0140003401400040014000440140F3
:10151000004801400A460021018B4FF6F77319403D
:10152000114301837047000070B50024002200239E
:10153000058C4FF6EF7635400584028C8388048B4A
:1015400048F6FF752C404FF6FF452C400D884FF6AE
:10155000FF7606EA05252C434FF6DF752A400D89F4
:1015600006EA05152A434D8806EA05152A43154D56
:10157000A84202D0144DA8421DD14FF67F752A40D3
:101580004D894FF6FF7606EA05152A434FF6BF75DB
:101590002A408D8806EA05152A434FF6FF352B4071
:1015A0004FF2FF752B408D8906EA85052B43CD89C7
:1015B00006EA85052B4383800483CD880587028452
:1015C00070BD0000002C0140003401400A4600219B
:1015D000018C4FF6DF7319404FF6FF7303EA0213D5
:1015E0001943018470470A460021018B4FF2FF73B3
:1015F00019404FF6FF7303EA022319430183704732
:1016000070B5002400220023058C4FF6FF6635409C
:101610000584028C8388848B4FF68F752C404FF69F
:10162000FC752C400D882C434FF6FF552A400D8940
:101630004FF6FF7606EA05252A434D8806EA05257A
:101640002A43154DA84202D0144DA8421DD14FF295
:10165000FF752A404D894FF6FF7606EA05252A4395
:101660004FF6FF352A408D8806EA05252A434EF6B7
:10167000FF752B404DF6FF752B408D8906EA051549
:101680002B43CD8906EA05152B4383808483CD88BF
:101690008587028470BD0000002C014000340140A9
:1016A0000A460021818B4FF6F7731940114381835D
:1016B000704781847047028B4FF6F3731A400283A0
:1016C000028B0A4302837047028B4FF2FF331A40AA
:1016D0000283028B4FF6FF7303EA01231A4302834E
:1016E0007047828B4FF6F3731A408283828B0A43D2
:1016F00082837047828B4FF2FF331A408283828B42
:101700004FF6FF7303EA01231A43828370470000F8
:10171000002202881D4B98420ED01D4B98420BD0E0
:10172000B0F1804F08D01B4B984205D01A4B98421D
:1017300002D01A4B984204D14FF68F731A404B884F
:101740001A43174B984207D0164B984204D04FF6D5
:10175000FF431A40CB881A4302808B8883850B880D
:1017600003850A4B98420BD0094B984208D00E4B88
:10177000984205D00D4B984202D00D4B984201D1B2
:101780000B7A03860123838270470000002C0140FE
:10179000003401400004004000080040000C0040FC
:1017A000001000400014004000400140004401408F
:1017B0000048014010B540F225511D4800F004F9E1
:1017C00010B31B4800F0BCF9C4B21A48008800F4FA
:1017D0000040C8B91748008800F4804060B10A2C66
:1017E00003D000201349088020E01248008840F40C
:1017F00000401049088019E00D2C06D10D480088E2
:1018000040F480400B49088010E00A480088C0F38B
:101810000D0009490C5407480088401C0549088000
:1018200008460088C72801DD0020088010BD0000A0
:1018300000380140300000204C00002010B540F27C
:1018400025511D4800F0C0F810B31B4800F078F98E
:10185000C4B21A48008800F40040C8B9174800888C
:1018600000F4804060B10A2C03D0002013490880A6
:1018700020E01248008840F400401049088019E038
:101880000D2C06D10D48008840F480400B4908809B
:1018900010E00A480088C0F30D0009490C540748BD
:1018A0000088401C0549088008460088C72801DDDB
:1018B0000020088010BD0000004400404A000020C5
:1018C0001401002070B51448008800F40040F0B105
:1018D00011480088C0F30D0500240DE00F48015D9C
:1018E0000F4800F032F900BF40210D4800F05FF8CA
:1018F0000128F9D1601CC4B2AC42EFDB284600F0ED
:101900005BF908A0FEF784FC0020034908804FF42F
:10191000FA7000F0D5FA70BD4A00002014010020D2
:10192000004400400D0A0D0A0000000010B540F20E
:1019300025510D4800F048F8A8B10B4800F000F917
:10194000C4B20120094908700948047040F22551C9
:10195000054800F011F80748006808B9012000E0C8
:1019600000200449086010BD0048004049000020E4
:1019700048000020A001214210B50022002340F6BB
:101980006A14A14200D100BF0A1201249440A3B2FC
:10199000DC43048010BD21B1828942F4005282816F
:1019A00004E082894DF6FF731A4082817047024637
:1019B0000020B1F5007F00D100BF13880B400BB1B0
:1019C000012000E00020704770B50246002400238B
:1019D0000025002040F66A16B14200D100BFC1F3D5
:1019E000421501F01F03012606FA03F3012D02D16F
:1019F0009689334006E0022D02D1168A334001E079
:101A0000968A33400C12012606FA04F416883440F4
:101A100013B10CB1012000E0002070BDF0B5034609
:101A2000002400260025002040F66A17B94200D1A4
:101A300000BF1846C1F3421401F01F06012707FA40
:101A400006F5012C01D10C3004E0022C01D110303C
:101A500000E014301AB107682F43076002E00768FE
:101A6000AF430760F0BD00002DE9F04786B00546A2
:101A70000E460024A24600BFA1460027B08900B14F
:101A800000BF2F462C8A4CF6FF700440F0880443B8
:101A90002C82AC894EF6F3100440B088318908439B
:101AA000718908430443AC81AC8A4FF6FF4004407F
:101AB000B0890443AC8201A8FEF700FF1F488742AB
:101AC00002D1DDF810A001E0DDF80CA0A88900F437
:101AD000004040B10AEBCA0000EB0A10316849002F
:101AE000B0FBF1F807E00AEBCA0000EB0A1031681E
:101AF0008900B0FBF1F86420B8FBF0F00401200984
:101B0000642101FB1089A88900F4004040B1322013
:101B100000EBC900B0FBF1F000F00700044308E05F
:101B2000322000EB09106421B0FBF1F000F00F004F
:101B300004432C8106B0BDE8F08700000038014066
:101B400001468888C0F308007047C1F3080282800C
:101B5000704700BFFEE7014600BF704701200949FA
:101B600008600949C1F89C0100200849086001206B
:101B7000091D0860091D086000200549C1F8BC0165
:101B8000704700009801214200002142B0812142AB
:101B90000080214270B505460E461446314628465F
:101BA000FFF74EF903480480001D0480FFF7D6FFBD
:101BB00070BD00003404004070B505460024AE48F6
:101BC000005DC72812D1AC49601C085CB0280DD15B
:101BD000A01C085CBD2809D1E01C085CF82805D1D0
:101BE0004FF4E1720021500000F0B8F9A248005D06
:101BF000BA2812D1A049601C085CF3280DD1A01CA2
:101C0000085CCD2809D1E01C085CCB2805D14FF435
:101C1000E17200215000FFF7BDFF9748005DD72813
:101C200012D19549601C085CF3280DD1A01C085CFA
:101C3000D72809D1E01C085CAA2805D1FA22002186
:101C40004FF4617000F0CCF98B48005DD32812D1BD
:101C50008949601C085CD2280DD1A01C085CD728DB
:101C600009D1E01C085CAA2805D1FA2200214FF412
:101C7000617000F005FA8048005DCD280ED17E49E4
:101C8000601C085CA32809D1A01C085CD62805D1DB
:101C9000E01C085CB92801D100F026FA7648005D06
:101CA000D22823D17449601C085CBB281ED1A01C1B
:101CB000085CB5281AD1E01C085CB52816D1201D97
:101CC000085CC72812D1601D085CB0280ED1A01D89
:101CD000085CBD280AD1E01D085CF82806D14FF445
:101CE000AF7200214FF4617000F038F96248005D76
:101CF000B62822D16049601C085CFE281DD1A01CBA
:101D0000085CB52819D1E01C085CB52815D1201D48
:101D1000085CC72811D1601D085CB0280DD1A01D3A
:101D2000085CBD2809D1E01D085CF82805D1FA221D
:101D300000214FF4617000F011F94F48005DC82890
:101D400022D14D49601C085CFD281DD1A01C085CF7
:101D5000B52819D1E01C085CB52815D1201D085CF8
:101D6000C72811D1601D085CB0280DD1A01D085CEA
:101D7000BD2809D1E01D085CF82805D132220021D8
:101D80004FF4617000F0EAF83B48005DD22823D19F
:101D90003949601C085CBB281ED1A01C085CB52812
:101DA0001AD1E01C085CB52816D1201D085CBA28A1
:101DB00012D1601D085CF3280ED1A01D085CCD284F
:101DC0000AD1E01D085CCB2806D14FF4AF72002188
:101DD0004FF46170FFF7DEFE2748005DB62822D180
:101DE0002549601C085CFE281DD1A01C085CB52894
:101DF00019D1E01C085CB52815D1201D085CBA2853
:101E000011D1601D085CF3280DD1A01D085CCD2800
:101E100009D1E01D085CCB2805D1FA2200214FF43E
:101E20006170FFF7B7FE1448005DC82822D112493F
:101E3000601C085CFD281DD1A01C085CB52819D1C8
:101E4000E01C085CB52815D1201D085CBA2811D10A
:101E5000601D085CF3280DD1A01D085CCD2809D1B8
:101E6000E01D085CCB2805D1322200214FF46170BF
:101E7000FFF790FE70BD00001401002010B56FF058
:101E80000400FEF757FE0A4800680A49B0FBF1F06B
:101E9000094908700846007800EB4001C1EBC0100A
:101EA0004FF6FF7101EAC0000449088010BD000030
:101EB0000000002000127A00280000202A000020E4
:101EC0000146114A12884A434FF0E0235A6100222A
:101ED0009A611A46126942F001021A6100BF4FF07E
:101EE000E022106900F001021AB100F48032002AE9
:101EF000F5D04FF0E022126922F001024FF0E0230A
:101F00001A6100229A6170472A00002000BF054A2A
:101F1000128802F04002002AF9D0C2B2014B1B1D08
:101F20001A807047003801400120084908600849BC
:101F3000C1F89C01074908600020091D0860091DBF
:101F4000086001200449C1F8BC0170479801214292
:101F500000002142B08121420080214270B5054637
:101F60000E46144631462846FEF76AFF03480480B1
:101F7000001D0480FFF7D8FF70BD0000340400404E
:101F800008B54FF4A060FEF73BFC36208DF800004A
:101F900000208DF801008DF8020001208DF803006B
:101FA0006846FEF7F5FB08BD0020094908600120DE
:101FB0000849C1F89C01002007490860091D086014
:101FC000091D086001200549C1F8BC0170470000E7
:101FD0009801214200002142B0812142008021422B
:101FE00070B505460E46144631462846FEF728FFD2
:101FF00003480480001D0480FFF7D6FF70BD000079
:1020000034040040FFF73AFF4FF4A060FEF7F8FBFE
:10201000FEF732FB4FF4165000F07EF8FEF7B8FCE6
:10202000FEF77AF9FEF7D8FAFEF75AFB4FF416508E
:1020300000F0C2F8FEF792FF04E0FFF743FC0A202D
:10204000FFF73EFFF9E70000012009490860002082
:102050000849C1F89C010120074908600020091DBA
:102060000860091D08600549C1F8BC0170470000FF
:102070009801214200002142B0812142008021428A
:1020800070B505460E46144631462846FEF7D8FE82
:1020900003480480001D0480FFF7D6FF70BD0000D8
:1020A000340400402DE9F04105460E46002717E0B4
:1020B000741E12E0621E55F8221055F8240000F03C
:1020C0009AFC09D255F82480601E55F8200045F886
:1020D0002400601E45F82080641EBC42EADC7F1CA0
:1020E000B742E5DBBDE8F0810020074908600749F9
:1020F000C1F89C0106490860091D0860091D0860B7
:102100000449C1F8BC0170479801214200002142F6
:10211000B08121420080214210B586B004460121E1
:1021200044F20400FEF7AAFB4FF40070ADF814006F
:1021300003208DF8160018208DF8170005A91C48FB
:10214000FEF71CF94FF48060ADF8140004208DF800
:10215000170005A91648FEF711F925208DF8000093
:1021600003208DF801008DF8020001208DF8030096
:102170006846FEF70DFB01940020ADF80800ADF8AD
:102180000A00ADF80C00ADF810000C20ADF80E0000
:1021900001A90848FFF768FC012240F225510548D3
:1021A000FFF73CFC01210348FFF7F5FB06B010BD2B
:1021B000000801400038014010B586B004460121F6
:1021C0000420FEF75BFB01214804FEF737FB0420E7
:1021D000ADF8140003208DF8160018208DF81700B4
:1021E00005A91C48FEF7CAF80820ADF81400042021
:1021F0008DF8170005A91748FEF7C0F826208DF8BE
:10220000000003208DF801008DF8020001208DF8F8
:1022100003006846FEF7BCFA01940020ADF8080000
:10222000ADF80A00ADF80C00ADF810000C20ADF8C8
:102230000E0001A90848FFF717FC012240F22551C2
:102240000548FFF7EBFB01210348FFF7A4FB06B0AD
:1022500010BD0000000801400044004021F0004291
:10226000A2F16052B2F5801F01F0004328BFD2F105
:102270007F6C0BD95FEA001C43EAC20242EB50704C
:1022800018BF704728BF20F001007047B2F5801FCB
:10229000BCBF184670474FEA410C1CF5001F02D224
:1022A000084600F0A3BB70B500F062F90000008999
:1022B000FFF7F6BF4FF00040A0F580007047000028
:1022C0002DE9C04130B4DFF8A0C23CEA111418BFB8
:1022D0003CEA131400F0EC8081EA03051CEA1114B7
:1022E00044EAD57418BF1CEA131500F0C780A4EBAC
:1022F00005044FF0004545EAC12145EAC32341EA00
:10230000505143EA525304F17F74994204F500346A
:102310004FEAC0204FEAC22208BF904200F09C80E2
:102320004FEA13650FF24016765D4FEA134506FB40
:1023300005F7C7F1807706FB07F74FEAD737A7FB0A
:1023400003687642C8F58038A7FB06CE38BFA8F1EF
:10235000010807FB08E64FF0000EA6FB028CE6FB27
:1023600003CEDCF1000CCEF1004E38BFAEF1010E11
:10237000A6FB0C584FF000074FF00005E6FB0E8758
:10238000A1FB08C6A0FB07CE16EB0E0645F1000523
:10239000E1FB076515F1E04E7EBFA4F580345FEAEE
:1023A00046066D4116F1800745F100054FEA1727F3
:1023B0004FEA066647EA0567A6F1DE46B6F1805F9A
:1023C0004FEA15251FD9384624F0010C05EBC471DE
:1023D000BCF1FE6F01EB0C1102D8F0BCBDE800812E
:1023E00024425CBF01F5801E9EEAC47F02D4F0BC8B
:1023F000BDE80081244238D4F0BCA1F1C041BDE861
:10240000004100F003B94FEAD22242EA43524FEAB8
:10241000D323A7FB02864FEAD02040EA415007FBB6
:1024200003661EEA0E0F4FEAD12105FB026658BF74
:10243000A6EB0056B6EB00564FEA520E4EEAC37EAC
:1024400018EB0E0E56EB530EBDD518EB02085E418D
:102450007F1C55F10005B6E74FF480154FF00007DB
:102460004FF000064FF00008ADE7F0BC4FF0000061
:1024700001F1C04101F00041BDE8008111EA0C1FEB
:102480000CEA131500D00CE013EA0C1F00F02580B5
:102490004FF00000F0BC81EA030101F00041BDE80B
:1024A0000081F0BCBDE8004181EA030100F0AEB854
:1024B000F0BCBDE8004170B500F05AF8097EFC3E62
:1024C00000F007B881EA03014FF0000001F000417D
:1024D000704781EA030100F099B8F0BCBDE8004103
:1024E0004FF0000021497047FFFDFBF9F7F5F4F2CA
:1024F000F0EEEDEBE9E8E6E4E3E1E0DEDDDBDAD89F
:10250000D7D5D4D3D1D0CFCDCCCBCAC8C7C6C5C4FC
:10251000C2C1C0BFBEBDBCBBBAB9B8B7B6B5B4B313
:10252000B2B1B0AFAEADACABAAA9A8A8A7A6A5A4FE
:10253000A3A3A2A1A09F9F9E9D9C9C9B9A999998C2
:102540009797969595949393929191908F8F8E8E65
:102550008D8C8C8B8B8A89898888878786858584F2
:1025600084838382828181800000FF070000F87FDE
:102570000EF1020E2EF0030E5EF8046B364205D407
:10258000012A43EB030515F5001F12D8012841EB82
:10259000010C1CF5001F0CD80ED14FEAD17C15F5AB
:1025A000001F0CEB4C0C0CF1020C08BF4CEBD37C65
:1025B00004E04FF0080C01E04FEAD37C0CEB4C0533
:1025C00026FA05F606F00706B6F1040C06D20EEB65
:1025D000860CBDE870404CF0010C6047DFE80CF061
:1025E000090B02024FF000414FF00000A1F500215D
:1025F00070BD19461046012851EB010418BFD4F5EF
:10260000001484BF002001F0004170BD0808A0F54F
:1026100000114FEA3101704743004FEAD30C4FEAF3
:102620003C0C43401FBF40070CF1605113F0FE4FBC
:1026300070471CF0006F03D100200CF00041704780
:102640000CF0004343EA507010B540EACC0000F0B3
:1026500087F900BF000000924FEA0001FFF7D6BFE4
:102660004FF000414FF00000A1F50021704700003D
:1026700090EA010F48BF81F0004100F1F481421A55
:102680003CBF801A89184FEAD0524FF07F4C1CEAA9
:10269000410FA2EBD15318BF9CEA026F00F03B80C0
:1026A0004FF0004C4CEA00204CEA012121FA03FCD7
:1026B00010EB0C0C1ED202F1FF325FEA1C2040EB43
:1026C000C25038BF70471CF07F0F4FEA400C18BF54
:1026D000BCF17F4F38BF7047C3F12003994008BF5A
:1026E00020F00100BCF17F4F38BF7047A0F1C0401F
:1026F00000F07CB94FEA3C00000A40EBC25028BF12
:102700001CF0FF0F4FEA400CE6D018BFBCF17F4F22
:1027100038BF7047EAE79CEA026F05D010EA5C0F09
:1027200008BF00F00040704710B500F019F900BF75
:1027300064FBBE3E401058BFC0F14040491058BF36
:10274000C1F140418142EFF3008070474FF47F0CAC
:102750001CEAD0121EBF1CEAD11392EA0C0F93EAB6
:102760000C0F00F0858090EA010F48BF42F48072A0
:1027700040F4000C41F400002CF07F4120F07F4039
:1027800000B58142A2EB03020FF2081CACEB504EE5
:10279000C0F100009EF800E04FEA4E0E00FB0EFC78
:1027A00038BF49004FEA2C1C02F5FA020CFB0EF36D
:1027B0004FEACE1E4FEA112C4FEAC1210EEB635EA9
:1027C00042EB22420EFB0CFC4FEA1C5300FB0311B0
:1027D0004FEA112C4FEA01310EFB0CFC4FEADC4CA6
:1027E00000FB0C11C14228BF09184CEB03335DF804
:1027F00004EB10EB410143EBC250B2F57C0F38BF44
:10280000704729D512F0F00F1CBF00F1C04000F056
:1028100000407047008182838485868788898B8CFD
:102820008D8E8F919293959697999A9C9D9FA0A239
:10283000A3A5A7A8AAACAEB0B2B3B5B7B9BCBEC089
:10284000C2C5C7C9CCCED1D4D7D9DCDFE2E6E9EC2A
:10285000F0F3F7FAFE0000004FEA400C0CF1807C28
:10286000BCF17E4F28BF7047B0F1C04000F0BEB849
:1028700090EA010F0CEAD11348BF42F4807262451E
:1028800038BF634507D213F47F0F16D080EA0100EA
:1028900000F00040704710B500F062F8097EFC3E81
:1028A00000F005B880EA010000F00040704780EABF
:1028B000010000F0004000F099B812F47F0F04BF4F
:1028C0000248704780EA010000F090B80000C07F25
:1028D000B0FA80F310FA03F2C3F19D030AD0D905D0
:1028E00001EB1220530638BF704700F1010008BF0A
:1028F00020F001007047000050EA010C00F1138045
:102900001CF5000F58BFBCF5000F01D4884270477A
:1029100007D710F5000F58BF11F5000F15D48842E6
:102920007047894270471CF5000F04D5BCF5000FB5
:10293000F7D5814270474FF0807C1CEB400F38BFC9
:102940001CEB410F01D28142704710B500F008F82E
:10295000922449004FF000504FF08051FFF7EABE3B
:102960000EF1020E2EF0030E5EF8044B244204D446
:102970004FEA4102B2F17F4F11D84FEA4003B3F161
:102980007F4F0CD80ED14FEAD07CB2F17F4F0CEBC9
:102990004C0C0CF1020C08BF4CEBD17C04E04FF066
:1029A000080C01E04FEAD17C0CEB4C0324FA03F451
:1029B00004F00704B4F1040C06D20EEB840CBDE85D
:1029C00010404CF0010C6047DFE80CF007080202F1
:1029D0004FF00040A0F5800010BD0846420018BF2F
:1029E000D2F1807288BF00F0004010BDFF2141EAA3
:1029F000D050C005704751EA000C00F113801CF55F
:102A0000000F58BFBCF5000F01D48142704707D7B3
:102A100011F5000F58BF10F5000F15D48142704713
:102A2000894270471CF5000F04D5BCF5000FF7D59F
:102A3000884270474FF0807C1CEB410F38BF1CEB85
:102A4000400F01D28842704780EA010081EA00010C
:102A500080EA0100FFF779BF90EA010F48BF81F0DB
:102A600000413FF50CAE421A04D882F00042A0EBC0
:102A7000020011444FEAD0524FF07F4C1CEA410F44
:102A8000A2EBD15318BF9CEA026F4AD04FF0004C22
:102A90004CEA00204CEA012121FA03FCB0EB0C0CBB
:102AA0000FD412F0FE0F36D05FEA4C001DD5001295
:102AB00040EBC25038BF70471CF03F0F18BF704743
:102AC0000BE0A2F101025FEA1C2040EBC25038BFCC
:102AD00070471CF07F0F18BF7047C3F12003994067
:102AE00014BF401E20F00100704780084FEA1223F7
:102AF00008BF7047B0FA80FCA2EB0C02CCF1280CA6
:102B000060FA0CF093EA122F04BF00EBC25070473A
:102B10004FEAC3707047130A5FEADC1008BF7047C2
:102B2000F6E79CEA026F04D010EA5C0F08BF0020B1
:102B3000704710B5FFF714FF40DFF63E81F000400C
:102B400070470000642B0008000000204C000000CB
:102B50006C010008B02B00084C000020F4070000B6
:102B60008801000800A24A040000000000000000E4
:102B70000102030406070809000000000102030423
:102B80000102030406070809020406080000000009
:102B90000000000000000000000000000000000035
:102BA0000000000000000000000000000000000025
:04000005080001CD21
:00000001FF
