:020000040800F2
:1000000038080020ED010008ED1700081D15000854
:100010003D17000847130008532B0008000000009C
:10002000000000000000000000000000111B00089C
:10003000951300080000000099180008251C00080E
:10004000070200080702000807020008070200086C
:10005000070200080702000807020008070200085C
:10006000070200080702000807020008070200084C
:10007000070200080702000807020008070200083C
:10008000070200080702000807020008070200082C
:10009000070200080702000807020008070200081C
:1000A000070200080702000807020008070200080C
:1000B00007020008C91E000807020008070200081E
:1000C00007020008070200080702000807020008EC
:1000D00007020008B52700083D2800082D29000860
:1000E00007020008070200080702000807020008CC
:1000F00007020008070200080702000807020008BC
:100100000702000807020008C11F000807020008D4
:10011000070200080702000859210008070200082A
:10012000070200080702000807020008070200088B
:1001300000F002F800F04AF80AA090E8000C8244AF
:100140008344AAF10107DA4501D100F03FF8AFF28C
:10015000090EBAE80F0013F0010F18BFFB1A43F0A5
:1001600001031847283A0000483A0000103A24BF1B
:1001700078C878C1FAD8520724BF30C830C144BF0C
:1001800004680C607047000000230024002500264E
:10019000103A28BF78C1FBD8520728BF30C148BFEA
:1001A0000B607047662903F0A484642900F04C803A
:1001B000002070471FB500F087FB040000200021DD
:1001C00003F042F9E0601FBD10B510BD00F094FCD3
:1001D0001146FFF7EFFF03F003F800F0B2FC03B4A1
:1001E000FFF7F2FF03BC02F0D1FC00000948804792
:1001F00009480047FEE7FEE7FEE7FEE7FEE7FEE709
:10020000FEE7FEE7FEE7FEE704480549054A064B20
:1002100070470000291C0008310100083802002046
:1002200038080020380400203804002070470000FF
:100230000FB4044910B503AA029800F033FB10BCB8
:100240005DF814FB2C0000202DE9F0410646002447
:1002500010687529314616A510D0AFF3008000282C
:1002600002DA404213A507E031688A0701D512A5DA
:1002700002E0490704D511A5012401E0AFF3008095
:1002800000210A2206F1240709E0B0FBF2FCB0FBD2
:10029000F2F302FB1C00303078541846491C002849
:1002A000F3D123462A463046BDE8F04100F093B82A
:1002B000000000002D0000002B00000020000000C6
:1002C0002DE9F0474FF0000A89460446C0F820A007
:1002D0002046E1688847002876D0252806D0D4E952
:1002E00001219047206A401C2062F1E7E168204626
:1002F00000258847C4F81CA006460027C4F818A0AB
:100300002A2E09D0304602F03AFC38B304EB8708B5
:10031000303EC8F8186019E059F8041B204604EB79
:1003200087029161E1688847012F064618D1E0698C
:10033000002820DA25F020051DE0D8F8180000EB91
:10034000800006EB40003038C8F818002046E1680D
:100350008847064602F013FC0028EED1012F0AD090
:100360002E2E08D12046E16888477F1C0646022FC2
:1003700045F02005C4DBA069002803DA404245F0BF
:100380000105A061E80701D025F01005B6B1A6F17E
:100390004100192802D8203645F400654A46314606
:1003A000204625604D46FFF7FDFE58B1012806D0D6
:1003B000ED1D25F0070000F1080989E704E005F1CB
:1003C000040985E730468AE7206ABDE8F087704770
:1003D0007047704770472DE9F0470D4699469246A1
:1003E000044600F124080168880604D5E06921F07C
:1003F0001001216000E00120A84201DD471B00E060
:100400000027A1697A1902EB0900081AA061207877
:10041000C00602D42046AFF30080002608E0D4E9ED
:1004200001211AF806009047206A401C761C2062C1
:100430004E45F4DB2078C0060AD52046AFF3008095
:1004400006E0D4E9012130209047206A401C206258
:10045000381EA7F10107F4DC07E0D4E9012118F800
:1004600005009047206A401C2062281EA5F1010566
:10047000F3DC2046AFF300802078000602D502208E
:10048000BDE8F0870120FBE770472DE9FF4F0C46E0
:100490001E464FF0FF378BB0D2E90001DDF86080D7
:1004A0000A908A46C1F30A5505B93D46002108461F
:1004B0004FF00000BAF1000F00F4400005DA00EB45
:1004C00080004FF4400101EA50004FEA9059B9F121
:1004D000010F00DDB9460A9850EA4A000ED044F6F2
:1004E0001050A5F2FF3545432F14B8F1000F1ED070
:1004F0007542291E1EDDC9F100021CE0B8F1010F92
:100500004FF0000001D0302103E0F24305E0215418
:10051000401CB042FBDB30460022002121540B99E5
:10052000C1F80880C1E900200FB0BDE8F08FBD1B05
:100530006D1CDEE74A4600DA694206A800F066FA5A
:1005400006AB93E8070003AB83E8070050460A991F
:1005500000F03EFB8DE80700A0F500501F3800902A
:100560000398002D09DD42F21F014A46084403A901
:100570000390684600F09DFD08E0A0F500504A4653
:100580001F3803A90390684600F0A7FD8DE8070017
:100590000004000C03D04FF0FF30410800E010468B
:1005A000B8F1000F03D00022009215461EE0751E20
:1005B00005D400F08DF9303262556D1EF9D5B34681
:1005C0000122084302D000227F1C04E0207830285A
:1005D00001D100227F1E002A099786D01DE0112D2F
:1005E00007DA00F075F9303262556D1C50EA0102ED
:1005F000F5D1084302D00098C8B10EE00021681E72
:1006000005E0235C625C63542254401E491C814215
:10061000F7DBAB46A81B401E0990002004F80B0036
:100620000B98099AC0F80880C0E9002B7CE71126D6
:100630004FF0000859E72DE9F04F88460446D21DD7
:1006400022F0070191B0D1E90001CDE90A0102F0E1
:1006500082FA02460B98C00F01D02D2007E02068D7
:10066000810701D52B2002E0202101EAC000032AE6
:10067000099001D0072A05DB03464146204600F0D9
:1006800085F90BE12078800601D5E06900E00620BD
:10069000B8F1650F814606D0B8F1660F18D0B8F1F1
:1006A000670F70D131E00020B9F1110F009001DB2C
:1006B000112301E009F101030AAA01A90CA8FFF71F
:1006C000E4FEDDE90C70002609F10105834647E0F0
:1006D00001204B4600904FF000470AAA01A90CA840
:1006E000FFF7D3FEDDE90DB00C995D46002610B989
:1006F00009F101000D18B9EB050003D4C0F1FF3674
:1007000009F10105A5EB09002BE0B9F1010F01DAB0
:100710004FF001090020B9F1110F0090484601DDAA
:10072000112300E003460AAA01A90CA8FFF7ADFEB9
:10073000DDE90C704D4600268346207800070AD478
:10074000AB4500DA5D4601A8012D04DD411911F821
:10075000011C302907D04F4502DA17F1040F04DAE3
:10076000012082460FE06D1EEEE7002F02DCED1B3C
:100770003E4403E0781CA84200DD7D1CB81B00F15C
:10078000010A4FF000472078000703D4AA4501DB97
:100790004FF0FF3A0021B7F1004F0DF143088DF8FB
:1007A000431024D002202B23002F01DA7F422D2377
:1007B0000A21021EA0F1010000DC5FB197FBF1FCF1
:1007C00097FBF1F201FB1C7C17460CF1300C08F88A
:1007D00001CDEEE7A8F1010003702188090501D5DC
:1007E000452100E06521A0F1010800F8011C0998ED
:1007F0000FA9A1EB0807FF1D00B10120411901EB72
:10080000EA70A1693844081A401EA0612078C00629
:1008100002D42046AFF30080099828B1D4E9012121
:100820009047206A401C20622078C00622D52046CE
:10083000AFF300801EE0002E04DBB34502DD01A80B
:10084000805D00E03020D4E901219047206A401CFF
:100850002062761CAAF101005FEA000A0AD100F0CA
:1008600033F8C0680168405CD4E901219047206AF0
:10087000401C2062281EA5F10105DCDC07E0D4E95C
:10088000012118F8010B9047206A401C2062381E95
:10089000A7F10107F3DC2046AFF30080032011B07D
:1008A00043E60000074B70B50D467B4400F05BF853
:1008B0000446284600F018F910B14FF0FF3070BD23
:1008C000204670BD3B28000000487047F40100201E
:1008D00030B5B0F10A024FEA900E71F100034EEA12
:1008E000817EB0EB0E0061EB91014FEA101E4EEAE3
:1008F000017E10EB0E0041EB11114FEA102E4EEA73
:10090000016E10EB0E0041EB11214FEA104E4EEA42
:10091000014E10EB0E0041EB1141401841F1000176
:100920004FEAD00040EA41704FEAD10110EB800558
:100930004FEA810444EA907444EB01046D1944EBDE
:100940000404521BA3414FF0000348BF0A3200D5F4
:1009500030BD401C41F1000130BD000001694A1C5E
:1009600002610878704700B58FB0CDE901310021F0
:10097000059105497944CDE9031011466846FFF712
:100980009FFC0FB000BD0000E5FFFFFF2DE9F04127
:100990001F46044603260168072A01F4006004DBB1
:1009A00008B116A505E016A503E008B115A500E0FD
:1009B00015A521F010002060A069C01EA0610FB134
:1009C000401EA0612046AFF300804FB1D4E9012161
:1009D00038469047206A401C2062C01C206206E016
:1009E000206AFAE7D4E9012115F8010B9047761E39
:1009F000F8D22046AFF30080BDE8F0814E414E00B2
:100A00006E616E00494E4600696E66002DE9F04742
:100A1000814616468AB0334878440DC88DE80D00EB
:100A200030487844801C03AC0DC884E80D0041F6C2
:100A30009B300844372190FBF1F290FBF1F5A5F1D2
:100A4000800501FB12041B3C02D56442012000E03A
:100A50000020DFF890A080460027FA44AAF1BE0AE1
:100A60000DE0E00709D03246684607EB47010AEB84
:100A7000810100F032FB8DE8070064107F1C002C20
:100A8000EFD1184F7F44AC3F18E0E80714D007EBD4
:100A900004100DF1180A90E80E008AE80E00C068F4
:100AA000F04201D198190890324606A903A800F037
:100AB00014FB03AB83E807006D10641C002DE4D128
:100AC00032466946B8F1000F03A802D000F0F1FAEF
:100AD00001E000F002FBC9E90001C9F808200AB0F2
:100AE000BDE8F08758310000007B00F080007047BF
:100AF00000487047D40100207546FFF7F9FFAE4665
:100B000005006946534620F00700854618B020B519
:100B1000FFF77AFBBDE820404FF000064FF00007DA
:100B20004FF000084FF0000B21F00701AC46ACE895
:100B3000C009ACE8C009ACE8C009ACE8C0098D4602
:100B400070470446AFF300802046FFF748FB0000E3
:100B50004FF0013C50F8042B51F8043B9A4221D14C
:100B6000A2EB0C03934313EACC1317D150F8042BD8
:100B700051F8043B9A4215D1A2EB0C03934313EABC
:100B8000CC130BD150F8042B51F8043B9A4209D1F5
:100B9000A2EB0C03934313EACC13DBD04FF000001D
:100BA000704700BFD01A01BAB1FA81F101F0180103
:100BB00022FA01F0CB40C1F12001DBB2C0B2C01A71
:100BC0002CFA01F3D11A914311EAC311E6D170470F
:100BD0005FEA400C08BF91F0000F4FEA8C234FEA08
:100BE000C12243EA51514FEA1C5018BF00F5F040B2
:100BF0004FEA300018BF41F000415FEA6C5C00F042
:100C00002980BCF1FF3F08BF40F080407047130CC3
:100C100006BF12044FF0100C4FF0000C130E04BF6F
:100C200012020CF1080C130F04BF12010CF1040C9A
:100C3000930F04BF92000CF1020CD30F04BF5200BB
:100C40000CF1010C11464FF00002A0F11F00A0EBC7
:100C50000C00704711F0004F08BF704731F00041A1
:100C60003FF4D5AF0B0C06BF09044FF0100C4FF04A
:100C7000000C0B0E04BF09020CF1080C0B0F04BF93
:100C800009010CF1040C8B0F04BF89000CF1020C5C
:100C9000CB0F04BF49000CF1010CCCF12003A0EBF9
:100CA0000C0022FA03F302FA0CF241EA030100F10C
:100CB0000100704720F07F4C80EA030023F07F475B
:100CC000ACEB070303F57C5300F0004003F1FF0396
:100CD0002DE980494FEA154B09B44FEA144325EA40
:100CE0000B4E24EA03480FF2042606EB13274908AB
:100CF0003E785FEA320203FB0667C7F5000707FB91
:100D000006F64FEA54374FEAD64606F1020607FBCD
:100D1000066CCCF1005C4FEA1C472CEA074C07FB41
:100D200006F40CFB06F504EB15464FEA961634BFA5
:100D300000204FF000404FEAD13706FB07FC4FEA96
:100D40001C4C0CFB0BF7D21B03FB0CF761EB0701F0
:100D50000CFB0EF7B0EB074072EB17420CFB08F7E9
:100D600034BFA2EB0742B2EB074261EB17414FEAF7
:100D70000C444FEA910706FB07FC4FEA1C4C0CFBA6
:100D80000BF7B0EBC74072EB573203FB0CF734BFE5
:100D9000A2EBC742B2EBC74261EB57310CFB0EF737
:100DA000B0EBC70072EB57720CFB08F734BFA2EB35
:100DB000C702B2EBC70261EB5771039F4FEA816133
:100DC00041EA921104EBCC044FEAD1374FEA826238
:100DD00006FB07FC42EA90124FEA80604FEA1C4C87
:100DE0000CFB0BF7D21B03FB0CF761EB07010CFBB1
:100DF0000EF7B0EB074072EB17420CFB08F734BF5D
:100E0000A2EB0742B2EB074261EB17414FEA8C5568
:100E10004FEA910704EB9C2406FB07FC4FEA1C4CAD
:100E20000CFB0BF7B0EBC74072EB573203FB0CF730
:100E300034BFA2EBC742B2EBC74261EB57310CFBA8
:100E40000EF7B0EBC70072EB57720CFB08F734BF1C
:100E5000A2EBC702B2EBC70261EB577115EB4C2551
:100E60004FEA816141EA92114FEA82624FEAD1373B
:100E700042EA901206FB07FC44F100044FEA80604E
:100E80004FEA1C4C0CFB0BF7D21B03FB0CF761EB7E
:100E900007010CFB0EF7B0EB074072EB17420CFB9F
:100EA00008F734BFA2EB0742B2EB074261EB1741F0
:100EB00015EB1C154FEA813141EA92414FEA82322B
:100EC00042EA90424FEA80304FEA0C7644F1000447
:100ED00048EA03434EEA0B484FF0000EB2EB080C11
:100EE00071EB030724BF624639464EEB0E0E4FF0FE
:100EF000000B0018524149414BEB0B0BB2EB080CB5
:100F000071EB03077BF1000B24BF624639464EEBC1
:100F10000E0E4FF0000B0018524149414BEB0B0BEA
:100F2000B2EB080C71EB03077BF1000B24BF6246A8
:100F300039464EEB0E0E51EA020718BF46F0010685
:100F400016EB0E7655F1000254F1000103D5BDE811
:100F50008901BDE80088BDE88901BDE80048B619EF
:100F6000524141EB0101A3F10103704780807F7E74
:100F70007D7C7B7A7978777676757473727171700F
:100F80006F6E6E6D6C6C6B6A6A69686867666665C1
:100F90006464636362616160605F5F5E5E5D5D5C4F
:100FA0005C5B5B5A5A5959585857575656555555C0
:100FB0005454535352525251515050504F4F4F4E20
:100FC0004E4D4D4D4C4C4C4B4B4B4A4A4A4949496E
:100FD00048484847474747464646454545444444B0
:100FE000444343434342424242414141002B26D4C1
:100FF000770021D01CB54FEA370703B44FF010003B
:101000004FF010014FF000000FBCBDE810400BF195
:10101000010BBBF1010F08BF5FEA170722BF12F1F6
:10102000010211F101014FF0004143F1000300F012
:10103000004043EA00007047F9D35708DAE746EA70
:10104000064613F1400F4FEA16461FDD13F1200F3D
:10105000DFBF16430A46002120335B42C8D0C3F1EC
:10106000200746EA064602FA07F74FEA164646EA1E
:101070000706C3F1200722FA03F201FA07F721FA63
:1010800003F14FF0000342EA0702B1E746EA020625
:1010900046EA06464FEA164646EA0106BCBF46EA5D
:1010A0000646360C4FF000034FF000024FF00001EF
:1010B0009EE72DE9C048934630B491E8380007C850
:1010C00031EA400C48BF34EA430C03D5FFF7F2FD88
:1010D000FFF78CFFF0BCBDE800882DE9C0489346BF
:1010E00030B491E8380007C810F0804F08BF13F003
:1010F000804F03D100F005F8FFF778FFF0BCBDE8A2
:10110000008820F07F4780EA030023F07F4C07EB44
:101110000C03A3F57C5300F00040A3F1FE0392F012
:10112000000F00F0B38095F0000F00F077802DE9FC
:1011300001494FEA11404FEA144621EA004800FBFA
:1011400006FC24EA064708FB06F607FB08F800FB46
:1011500007F718EB06484CEB164C4FEA124B18EB0E
:1011600007484FEA15464CEB174022EA0B4E0BFBA3
:1011700006FC25EA06470EFB06F607FB0EFE0BFBF8
:1011800007F71EEB064E4CEB164C4FF000061EEB1D
:10119000074E4CEB174B18EB0B0840F1000018EB17
:1011A0000E0B58EB000840F100008F1A4FF00001C1
:1011B0003CBFC943661B14BFB5EB040C00213CBF08
:1011C000C943F61B4FEA17444EEA8E0E27EA044540
:1011D0004FEA1C4704FB07622CEA074C05FB07F7A4
:1011E0000CFB05F604FB0CFC16EB074642EB174222
:1011F00016EB0C4642EB1C421BEB060658EB0202B8
:10120000414146EA9E0601D5BDE80189B619524121
:1012100041EB0101A3F10103BDE801894FEA144547
:101220004FEA114724EA054621EA074C05FB07F47B
:1012300006FB07F70CFB06F105FB0CFC11EB074165
:1012400044EB17444FEA124711EB0C4144EB1C44AA
:1012500022EA074C05FB07F206FB07F70CFB06F634
:1012600005FB0CFC16EB074642EB174216EB0C464F
:1012700042EB1C456A1854F1000148BF7047B6198B
:10128000524141EB0101A3F10103704795F0000FBA
:1012900037D04FEA11424FEA144721EA024624EAC6
:1012A000074C02FB07F106FB07F70CFB06F402FBF9
:1012B0000CFC14EB074441EB17414FEA154714EBC4
:1012C0000C4441EB1C4125EA074C02FB07F506FBE9
:1012D00007F70CFB06F602FB0CFC16EB074645EB8A
:1012E000174516EB0C4645EB1C42121951F1000153
:1012F00048BF7047B619524141EB0101A3F1010308
:1013000070474FEA14454FEA114724EA054621EA9F
:10131000074C05FB07F106FB07F70CFB06F24FF045
:10132000000605FB0CFC12EB074241EB174112EBE8
:101330000C4251EB1C4148BF7047921841EB010130
:10134000A3F10103704700BFFEE7000008B50121CB
:10135000082000F0C3FA4FF47040ADF800001020F0
:101360008DF8030003208DF802006946044800F060
:101370002EF84FF47041024800F0B4F808BD0000A8
:10138000000C014010B50021014800F0FFFE10BD27
:10139000001000407047002109E0002201E0531CCA
:1013A0009AB242F614039A42F9DB4B1C99B281427D
:1013B000F3DB7047002107E0002201E0531C9AB2E2
:1013C000092AFBDB4B1C99B28142F5DB70472DE902
:1013D000F0410246002500260020002300240027BB
:1013E00091F803C00CF00F0591F803C00CF0100C3D
:1013F000BCF1000F03D091F802C04CEA050591F84A
:1014000000C0BCF1000F31D0146800202BE04FF079
:10141000010C0CFA00F3B1F800C00CEA03069E427E
:1014200020D183004FF00F0C0CFA03F7BC4305FAF0
:1014300003FC4CEA040491F803C0BCF1280F06D168
:101440004FF0010C0CFA00FCC2F814C00AE091F84D
:1014500003C0BCF1480F05D14FF0010C0CFA00FCA1
:10146000C2F810C0401C0828D1D31460B1F800C0E5
:10147000BCF1FF0F34DD546800202EE000F1080CB1
:101480004FF0010808FA0CF3B1F800C00CEA0306AB
:101490009E4221D183004FF00F0C0CFA03F7BC439E
:1014A00005FA03FC4CEA040491F803C0BCF1280FD0
:1014B00005D100F1080C08FA0CF8C2F8148091F874
:1014C00003C0BCF1480F07D100F1080C4FF0010830
:1014D00008FA0CF8C2F81080401C0828CED35460DB
:1014E000BDE8F081416170470161704710B500BFF0
:1014F000084800884FF47A7100FB01F4064800F0B8
:1015000048FF04440020044988843220FFF743FF49
:10151000204610BD3E0000200010004000BFFEE746
:101520002DE9FC5F4FF0000BD94600200190824668
:1015300000245CE0611C30A0FEF77AFE38E0012058
:10154000334908601420FFF735FF00203149C1F806
:10155000940100BFA01D2F4901EB8000D0F80001CD
:101560000028F7D000F086F909F1010900BFA01D9D
:10157000284901EB8000D0F800010128F7D0FFF7DF
:1015800001FFFFF7B3FF8346584602F0DFF90090F2
:1015900002F04EF9074600221F4B01F09DFF054661
:1015A00001F068FF01905146019802F06DF9824602
:1015B000B9F1050FC3D1504602F03AF905460022B1
:1015C000164B01F089FF074601F054FF0190019886
:1015D00002F02EF905462A460B46611C10A0FEF7C4
:1015E00027FE4FF00009002001908246641C012C68
:1015F000A0DBBDE8FC9F00002564BAC5B3ACC9F907
:10160000B2A8BFAACABCBCECB2E20A0A0000000041
:10161000948121420080214200004D40000014408E
:101620002564BAC5B3ACC9F9B2A8CAFDD6B53D2583
:101630002E3366636D0A0A001FB50121082000F0F1
:101640004DF92020ADF8000003208DF80200102095
:101650008DF8030069461E48FFF7B9FE20211C489B
:10166000FFF740FF4FF4F860ADF8000004208DF85C
:10167000030069461648FFF7AAFE40211448FFF709
:1016800031FF0121102000F009F9124800F08AFD15
:1016900040F2E730ADF808004720ADF80400002024
:1016A000ADF80A00ADF8060001A90A4801F030F8CB
:1016B0000121084800F064FD01221146054800F0B0
:1016C000D3FE01F04BFD0021024800F05FFD1FBD7D
:1016D000000C01400010004008B50121042000F07A
:1016E000FDF80121202000F0F9F84FF48070ADF8EA
:1016F000000003208DF8020010208DF803006946D9
:101700000C48FFF764FE4FF480710A48FFF7ECFEC7
:101710000420ADF8000003208DF8020010208DF8A1
:10172000030069460448FFF752FE04210248FFF710
:10173000DBFE08BD000801400014014000BFFEE7C9
:1017400000B587B00121880400F0A8F80121082025
:1017500000F0C4F818208DF81B004FF48060ADF83D
:10176000180001208DF81A0006A91E48FFF72FFE69
:1017700004208DF81B004002ADF8180001208DF800
:101780001A0006A91748FFF722FE4FF416500290E0
:101790000020ADF814000C20ADF812000020ADF8C8
:1017A0001000ADF80E00ADF80C0002A90E4801F0D3
:1017B0005BF901210C4801F0EEF8012240F22551BD
:1017C000094801F02BF927208DF8040001208DF83D
:1017D00007008DF805008DF8060001A800F008F854
:1017E00007B000BD000C01400048004070470000F9
:1017F00070B5002100230F22C47804B3154C24686F
:1018000004F4E064C4F5E064210AC1F10403CA40B1
:10181000447804FA03F184781440214309010E4C02
:101820000678A155047804F01F050124AC40057822
:101830006D11AD0005F1E025C5F8004109E004781F
:1018400004F01F050124AC40044D0678761145F8DC
:10185000264070BD0CED00E000E400E080E100E017
:1018600002490143024A1160704700000000FA0576
:101870000CED00E010B50021054800F01AFF002033
:10188000044908800121024800F080FC10BD0000DE
:10189000001000403E0000207047000029B1064AB9
:1018A000D2690243044BDA6104E0034AD2698243FD
:1018B000014BDA61704700000010024029B1064A6E
:1018C00012690243044B1A6104E0034A126982431D
:1018D000014B1A61704700000010024029B1064A0E
:1018E00092690243044B9A6104E0034A926982437D
:1018F000014B9A61704700000010024029B1064A6E
:10190000D2680243044BDA6004E0034AD26882439F
:10191000014BDA60704700000010024030B5002132
:101920000022002400232D4D6D6805F00C0121B12B
:10193000042905D0082923D105E0294D056022E0BE
:10194000274D05601FE0254D6D6805F47012234D8D
:101950006D6805F48034022505EB92421CB9214DD7
:10196000554305600BE01D4D6D6805F400351DB154
:101970001C4D5543056002E0194D5543056002E0DA
:10198000174D056000BF00BF144D6D6805F0F001F4
:101990000909154D6B5C0568DD4045600F4D6D68AC
:1019A00005F4E061090A104D6B5C4568DD40856017
:1019B0000A4D6D6805F46051C90A0B4D6B5C4568B2
:1019C000DD40C560054D6D6805F44041890B074D4C
:1019D0006B5CC568B5FBF3F5056130BD00100240D6
:1019E00000127A0000093D001400002024000020AD
:1019F00000B589B001210420FFF770FF0121082004
:101A0000FFF74CFF0220ADF8200028208DF82300BE
:101A100003208DF8220008A92148FFF7D8FC0221F5
:101A20001F48FFF761FD42F21070ADF81400472027
:101A3000ADF810000020ADF81600ADF8120004A9B2
:101A4000184800F065FE0420ADF804000020ADF851
:101A500006000120ADF808000020ADF80A000320C0
:101A6000ADF80C0001A90F4800F0A8FC01210D48B9
:101A700000F08CFB32208DF81C0001208DF81D0039
:101A800003208DF81E0001208DF81F0007A8FFF726
:101A9000AFFE01220521034800F0E6FC09B000BDBD
:101AA00000080140000C004010B50020154B1B78C9
:101AB00003F040032BB3144B1B68190E124B1B6829
:101AC000C3F30742D343DBB28B420BD151B90E4B68
:101AD0001B88C3F307210C4B1A78D343DBB28B422C
:101AE00000D1084620B1074B1B7803F0800343B9AF
:101AF000044B1B7823F04003024C23700023034C5B
:101B0000237010BD34000020380000203C0000206D
:101B1000704710B500F002F810BD00000CB50020B1
:101B2000019000903348006840F4803031490860EB
:101B300000BF3048006800F4003000900198401C5D
:101B40000190009818B90198B0F5A06FF1D129481B
:101B5000006800F4003010B10120009001E0002086
:101B600000900098012843D12348006840F01000FD
:101B7000214908600846006820F003000860084614
:101B8000006840F0020008601A484068194948603F
:101B90000846406848600846406840F480604860F5
:101BA0000846406820F47C1048600846406840F4CD
:101BB000E81048600846006840F08070086000BF88
:101BC0000C48006800F000700028F9D0094840680F
:101BD00020F00300074948600846406840F00200D2
:101BE000486000BF0348406800F00C000828F9D1A5
:101BF0000CBD00000010024000200240042808D163
:101C00004FF0E021096941F004014FF0E022116139
:101C100007E04FF0E021096921F004014FF0E022D4
:101C2000116170477047000010B51348006840F01C
:101C300001001149086008464068104908400E49F3
:101C40004860084600680E4908400B49086008468D
:101C5000006820F4802008600846406820F4FE00F8
:101C600048604FF41F008860FFF753FF4FF000609B
:101C70000449086010BD0000001002400000FFF899
:101C8000FFFFF6FE08ED00E0F0B50C461546002219
:101C90000021068C4FF6FE773E400684028B018CB5
:101CA0004FF60C7632407E1C06EA03162E43324372
:101CB000104EB0420ED0104EB0420BD0B0F1804F5B
:101CC00008D00E4EB04205D00D4EB04202D00D4E9F
:101CD000B04206D14FF6FD76314044F00106314363
:101CE00005E04FF6F576314044F0010631430283BA
:101CF0000184F0BD002C014000340140000400408C
:101D000000080040000C0040F0B50C4615460022CB
:101D100000210026078C4FF6EF7C07EA0C070784AA
:101D2000028B018C4FF6FF7707EA041640F6FF4757
:101D30003A404FF6FF7707EA03373A434FF6FF770B
:101D400007EA05273A43114FB8420ED0104FB84268
:101D50000BD0B0F1804F08D00E4FB84205D00E4FD7
:101D6000B84202D00D4FB84206D14FF6DF77394066
:101D700046F01007394305E04FF65F77394044F0ED
:101D80001007394302830184F0BD0000002C01409C
:101D9000003401400004004000080040000C0040F6
:101DA000F0B50C461546002200210026078C4FF6A0
:101DB000FF6C07EA0C070784828B018C4FF6FF77D4
:101DC00007EA04264FF60C773A404FF6FF7707EA0A
:101DD00003172F433A43114FB8420ED0104FB84269
:101DE0000BD0B0F1804F08D00E4FB84205D00E4F47
:101DF000B84202D00D4FB84206D14FF6FF573940D6
:101E000046F48077394305E04FF2FF57394044F4F8
:101E10008077394382830184F0BD0000002C0140AB
:101E2000003401400004004000080040000C004065
:101E3000F0B50C461546002200210026078C4EF610
:101E4000FF7C07EA0C070784828B018C4FF6FF7733
:101E500007EA043640F6FF473A404FF6FF7707EAB5
:101E600005273A434FF6FF7707EA03373A43114F06
:101E7000B8420ED0104FB8420BD0B0F1804F08D00E
:101E80000E4FB84205D00E4FB84202D00D4FB842A7
:101E900006D14DF6FF77394046F48057394305E0C7
:101EA00047F6FF57394044F4805739438283018411
:101EB000F0BD0000002C014000340140000400404F
:101EC00000080040000C004010B50121084800F057
:101ED00063FA58B10121064800F055F90548006839
:101EE00008B9012000E000200249086010BD000090
:101EF000000400408881224230B589B005460C4676
:101F000001210220FFF7CAFC01210420FFF7E6FCB3
:101F100001210820FFF7E2FCC020ADF820001820C6
:101F20008DF8230003208DF8220008A92148FFF72F
:101F30004EFA0120ADF8200018208DF82300032070
:101F40008DF8220008A91C48FFF741FAADF8185097
:101F5000ADF814400020ADF81A00ADF8160005A940
:101F6000164800F0D5FB7020ADF804000020ADF855
:101F70000C000120ADF8060001A9104800F0D4FAC9
:101F800001A90E4800F07AFA01A90C4800F038FBCC
:101F900008210A4800F027FB0821084800F0BAFA97
:101FA0000821064800F07CFB0121044800F0EEF80F
:101FB00009B030BD00080140000C014000040040A1
:101FC00010B501215E4800F0E7F9F8B15D480078EE
:101FD00000F08000D0B15B48007820F01000594933
:101FE00008700846007800F00F0020B90846007815
:101FF00040F0400008705348007800F00F000E28B1
:1020000005DA50480078401C4E4908700AE04D48F7
:10201000007820F080004B4908700846007800F0F6
:10202000F00008700421464800F0B6F9002810D0EE
:102030004548006870B10221414800F0C7FA00210C
:102040003F4800F036FB3F48007840F010003D4923
:10205000087070E03A4800F099F93C490880002186
:10206000374800F0B3FA3748007800F01000002835
:102070005BD03448007800F08000E8B33348008833
:10208000B0F5967F0DDD31480088B0F5487F08DA5D
:102090002F48006840002E49086008460068086024
:1020A00043E02A480088B0F5AF6F0FDD274800886D
:1020B000B0F5E16F0ADA264800684000244908605C
:1020C0000846006840F0010008602EE01F480088C4
:1020D00040F69801884228DD1C48008840F62821F7
:1020E000884222DA1B480078401C1A4908701548BB
:1020F000007800F0F00000E002E01249087014E0FF
:102100001248008841F2680188420EDD0F480088BD
:1021100041F25C21884208DA0A48007840F08000E9
:102120000849087000200B4908700648007820F024
:102130001000044908700521014800F021F810BD85
:10214000000C004034000020040121423600002031
:10215000380000203C00002010B50121064800F0A6
:102160001BF940B10121044800F00DF80348008834
:10217000401C0249088010BD001000403E000020B5
:10218000CA4302827047CA430282704721B1028863
:1021900042F00102028004E002884FF6FE731A400A
:1021A0000280704710B504466848844208D1012176
:1021B000C014FFF7A3FB0021E014FFF79FFBC4E06E
:1021C000B4F1804F08D101210846FFF777FB0021C9
:1021D0000120FFF773FBB8E05D48844208D101217C
:1021E0000220FFF76BFB00210220FFF767FBACE04A
:1021F0005848844208D101210420FFF75FFB0021E9
:102200000420FFF75BFBA0E05348844208D1012182
:102210000820FFF753FB00210820FFF74FFB94E055
:102220004E48844208D101211020FFF747FB0021CE
:102230001020FFF743FB88E04948844208D1012180
:102240002020FFF73BFB00212020FFF737FB7CE03D
:102250004448844208D101214014FFF74FFB00217C
:102260006014FFF74BFB70E03F48844209D1012125
:10227000C804FFF743FB00214FF40020FFF73EFBAB
:1022800063E03A48844209D101210805FFF736FB93
:1022900000214FF48010FFF731FB56E034488442B0
:1022A00009D101214805FFF729FB00214FF4001057
:1022B000FFF724FB49E02F48844208D10121402048
:1022C000FFF7FCFA00214020FFF7F8FA3DE02A482A
:1022D000844208D101218020FFF7F0FA00218020FC
:1022E000FFF7ECFA31E02548844208D1012180153E
:1022F000FFF7E4FA0021A015FFF7E0FA25E02048F7
:10230000844209D101210804FFF7F8FA00214FF4B3
:102310008030FFF7F3FA18E01A48844209D101210E
:102320004804FFF7EBFA00214FF40030FFF7E6FA1C
:102330000BE01548844208D101218804FFF7DEFA3A
:1023400000214FF48020FFF7D9FA10BD002C014086
:102350000004004000080040000C00400010004055
:102360000014004000340140004C01400050014086
:102370000054014000180040001C004000200040B4
:102380000040014000440140004801400146088FE0
:1023900070470146888C704730B502460020002304
:1023A0000024158A05EA0103958905EA010413B1A1
:1023B0000CB1012000E0002030BD000070B50546E2
:1023C0000C46244885420ED0234885420BD0B5F1F7
:1023D000804F08D02148854205D02148854202D04F
:1023E0002048854200D100E000BF208850B92389F1
:1023F000A28861882846FFF747FCE188284600F05C
:102400005AF925E0208804280AD12389A288618806
:102410002846FFF779FCE188284600F055F917E0D7
:10242000208808280AD12389A28861882846FFF7D6
:10243000B7FCE188284600F054F909E02389A28816
:1024400061882846FFF7F4FCE188284600F052F93D
:1024500070BD0000002C0140003401400004004029
:1024600000080040000C00401AB183890B438381AF
:1024700002E083898B4383817047000070B500249C
:1024800000220023058C4FF6FE7635400584028C31
:102490008388048B4FF68F752C40B51E2C400D8819
:1024A0002C43751E2A400D892A434D882A43144D1A
:1024B000A8420BD0134DA84208D0134DA84205D016
:1024C000124DA84202D0124DA84213D14FF6F77513
:1024D0002A404D892A434FF6FB752A408D882A43AE
:1024E0004FF6FF652B404FF6FF552B408D892B4350
:1024F000CD892B4383800483CD888586028470BD7B
:10250000002C0140003401400040014000440140E3
:10251000004801400A460021018B4FF6F77319402D
:10252000114301837047000070B50024002200238E
:10253000058C4FF6EF7635400584028C8388048B3A
:1025400048F6FF752C404FF6FF452C400D884FF69E
:10255000FF7606EA05252C434FF6DF752A400D89E4
:1025600006EA05152A434D8806EA05152A43154D46
:10257000A84202D0144DA8421DD14FF67F752A40C3
:102580004D894FF6FF7606EA05152A434FF6BF75CB
:102590002A408D8806EA05152A434FF6FF352B4061
:1025A0004FF2FF752B408D8906EA85052B43CD89B7
:1025B00006EA85052B4383800483CD880587028442
:1025C00070BD0000002C0140003401400A4600218B
:1025D000018C4FF6DF7319404FF6FF7303EA0213C5
:1025E0001943018470470A460021018B4FF2FF73A3
:1025F00019404FF6FF7303EA022319430183704722
:1026000070B5002400220023058C4FF6FF6635408C
:102610000584028C8388848B4FF68F752C404FF68F
:10262000FC752C400D882C434FF6FF552A400D8930
:102630004FF6FF7606EA05252A434D8806EA05256A
:102640002A43154DA84202D0144DA8421DD14FF285
:10265000FF752A404D894FF6FF7606EA05252A4385
:102660004FF6FF352A408D8806EA05252A434EF6A7
:10267000FF752B404DF6FF752B408D8906EA051539
:102680002B43CD8906EA05152B4383808483CD88AF
:102690008587028470BD0000002C01400034014099
:1026A0000A460021818B4FF6F7731940114381834D
:1026B000704781847047028B4FF6F3731A40028390
:1026C000028B0A4302837047028B4FF2FF331A409A
:1026D0000283028B4FF6FF7303EA01231A4302833E
:1026E0007047828B4FF6F3731A408283828B0A43C2
:1026F00082837047828B4FF2FF331A408283828B32
:102700004FF6FF7303EA01231A43828370470000E8
:10271000002202881D4B98420ED01D4B98420BD0D0
:10272000B0F1804F08D01B4B984205D01A4B98420D
:1027300002D01A4B984204D14FF68F731A404B883F
:102740001A43174B984207D0164B984204D04FF6C5
:10275000FF431A40CB881A4302808B8883850B88FD
:1027600003850A4B98420BD0094B984208D00E4B78
:10277000984205D00D4B984202D00D4B984201D1A2
:102780000B7A03860123838270470000002C0140EE
:10279000003401400004004000080040000C0040EC
:1027A000001000400014004000400140004401407F
:1027B0000048014010B540F225511D4800F004F9D1
:1027C00010B31B4800F0BCF9C4B21A48008800F4EA
:1027D0000040C8B91748008800F4804060B10A2C56
:1027E00003D000201349088020E01248008840F4FC
:1027F00000401049088019E00D2C06D10D480088D2
:1028000040F480400B49088010E00A480088C0F37B
:102810000D0009490C5407480088401C05490880F0
:1028200008460088C72801DD0020088010BD000090
:1028300000380140300000204400002010B540F274
:1028400025511D4800F0C0F810B31B4800F078F97E
:10285000C4B21A48008800F40040C8B9174800887C
:1028600000F4804060B10A2C03D000201349088096
:1028700020E01248008840F400401049088019E028
:102880000D2C06D10D48008840F480400B4908808B
:1028900010E00A480088C0F30D0009490C540748AD
:1028A0000088401C0549088008460088C72801DDCB
:1028B0000020088010BD00000044004042000020BD
:1028C0000C01002070B51448008800F40040F0B1FD
:1028D00011480088C0F30D0500240DE00F48015D8C
:1028E0000F4800F032F900BF40210D4800F05FF8BA
:1028F0000128F9D1601CC4B2AC42EFDB284600F0DD
:1029000077F908A0FDF794FC0020034908804FF4F4
:10291000FA7000F0C3FB70BD420000200C010020E3
:10292000004400400D0A0D0A0000000010B540F2FE
:1029300025510D4800F048F8A8B10B4800F000F907
:10294000C4B20120094908700948047040F22551B9
:10295000054800F011F80748006808B9012000E0B8
:1029600000200449086010BD0048004041000020DC
:1029700040000020A001214210B50022002340F6B3
:102980006A14A14200D100BF0A1201249440A3B2EC
:10299000DC43048010BD21B1828942F4005282815F
:1029A00004E082894DF6FF731A4082817047024627
:1029B0000020B1F5007F00D100BF13880B400BB1A0
:1029C000012000E00020704770B50246002400237B
:1029D0000025002040F66A16B14200D100BFC1F3C5
:1029E000421501F01F03012606FA03F3012D02D15F
:1029F0009689334006E0022D02D1168A334001E069
:102A0000968A33400C12012606FA04F416883440E4
:102A100013B10CB1012000E0002070BDF0B50346F9
:102A2000002400260025002040F66A17B94200D194
:102A300000BF1846C1F3421401F01F06012707FA30
:102A400006F5012C01D10C3004E0022C01D110302C
:102A500000E014301AB107682F43076002E00768EE
:102A6000AF430760F0BD00002DE9F04786B0054692
:102A70000E460024A24600BFA1460027B08900B13F
:102A800000BF2F462C8A4CF6FF700440F0880443A8
:102A90002C82AC894EF6F3100440B088318908438B
:102AA000718908430443AC81AC8A4FF6FF4004406F
:102AB000B0890443AC8201A8FEF730FF1F4887426B
:102AC00002D1DDF810A001E0DDF80CA0A88900F427
:102AD000004040B10AEBCA0000EB0A10316849001F
:102AE000B0FBF1F807E00AEBCA0000EB0A1031680E
:102AF0008900B0FBF1F86420B8FBF0F00401200974
:102B0000642101FB1089A88900F4004040B1322003
:102B100000EBC900B0FBF1F000F00700044308E04F
:102B2000322000EB09106421B0FBF1F000F00F003F
:102B300004432C8106B0BDE8F08700000038014056
:102B400001468888C0F308007047C1F308028280FC
:102B5000704700BFFEE7490050EAC12018BF0420BB
:102B60004A0D18BF40F0010040F2FF72B2EB515F16
:102B700008BF40F00200012808BF05207047303828
:102B80000A2801D20120704700207047014600BF8B
:102B9000704700000120094908600949C1F89C01FB
:102BA0000020084908600120091D0860091D08600F
:102BB00000200549C1F8BC0170470000980121427E
:102BC00000002142B08121420080214270B50546BB
:102BD0000E46144631462846FFF78EF90348048016
:102BE000001D0480FFF7D6FF70BD000034040040D4
:102BF00070B505460024AE48005DC72812D1AC4927
:102C0000601C085CB0280DD1A01C085CBD2809D14F
:102C1000E01C085CF82805D14FF4E1720021500057
:102C200000F08AFAA248005DBA2812D1A049601CBF
:102C3000085CF3280DD1A01C085CCD2809D1E01C4C
:102C4000085CCB2805D14FF4E17200215000FFF75A
:102C5000BDFF9748005DD72812D19549601C085CDC
:102C6000F3280DD1A01C085CD72809D1E01C085C12
:102C7000AA2805D1FA2200214FF4617000F09EFAD3
:102C80008B48005DD32812D18949601C085CD2288A
:102C90000DD1A01C085CD72809D1E01C085CAA282B
:102CA00005D1FA2200214FF4617000F001FB804849
:102CB000005DCD280ED17E49601C085CA32809D197
:102CC000A01C085CD62805D1E01C085CB92801D1FD
:102CD00000F000FB7648005DD22823D17449601CC7
:102CE000085CBB281ED1A01C085CB5281AD1E01CCA
:102CF000085CB52816D1201D085CC72812D1601DBC
:102D0000085CB0280ED1A01D085CBD280AD1E01DCA
:102D1000085CF82806D14FF4AF7200214FF46170BF
:102D200000F00AFA6248005DB62822D16049601CB2
:102D3000085CFE281DD1A01C085CB52819D1E01C38
:102D4000085CB52815D1201D085CC72811D1601D6D
:102D5000085CB0280DD1A01D085CBD2809D1E01D7C
:102D6000085CF82805D1FA2200214FF4617000F0C8
:102D7000E3F94F48005DC82822D14D49601C085C2A
:102D8000FD281DD1A01C085CB52819D1E01C085CE9
:102D9000B52815D1201D085CC72811D1601D085C1D
:102DA000B0280DD1A01D085CBD2809D1E01D085C2C
:102DB000F82805D1322200214FF4617000F0BCF9EF
:102DC0003B48005DD22823D13949601C085CBB28F0
:102DD0001ED1A01C085CB5281AD1E01C085CB528DF
:102DE00016D1201D085CBA2812D1601D085CF3289A
:102DF0000ED1A01D085CCD280AD1E01D085CCB28AF
:102E000006D14FF4AF7200214FF46170FFF7DEFE80
:102E10002748005DB62822D12549601C085CFE28A1
:102E20001DD1A01C085CB52819D1E01C085CB52890
:102E300015D1201D085CBA2811D1601D085CF3284B
:102E40000DD1A01D085CCD2809D1E01D085CCB2860
:102E500005D1FA2200214FF46170FFF7B7FE144844
:102E6000005DC82822D11249601C085CFD281DD1D4
:102E7000A01C085CB52819D1E01C085CB52815D148
:102E8000201D085CBA2811D1601D085CF3280DD103
:102E9000A01D085CCD2809D1E01D085CCB2805D118
:102EA000322200214FF46170FFF790FE70BD0000E8
:102EB0000C0100202DE9F04104460E461546FEF7B0
:102EC000F3FD0746012C6AD1002F68D0682F39D056
:102ED0000CDC222F28D004DC022F1BD0182F5DD150
:102EE0004EE0302F44D0622F58D10CE0A82F22D0D2
:102EF00004DC7A2F4BD0982F50D12BE0B02F30D05C
:102F0000C22F4BD109E04FF4E1720021500000F0D4
:102F100013F943E000F0DEF940E0FA2200214FF41B
:102F2000617000F0C5F939E0FA2200214FF46170B8
:102F300000F044F932E04FF4E17200215000FFF755
:102F400045FE2BE04FF4AF7200214FF4617000F0AA
:102F5000F3F823E0FA2200214FF4617000F0ECF85E
:102F60001CE0322200214FF4617000F0E5F815E01A
:102F70004FF4AF7200214FF46170FFF727FE0DE0B0
:102F8000FA2200214FF46170FFF720FE06E03222A2
:102F900000214FF46170FFF719FE00BF00BF012C44
:102FA00058D186B30C2D53D2DFE805F052060D142C
:102FB0001B22252E353C444B4FF4E172002150007A
:102FC00000F0BAF844E04FF4E17200215000FFF73E
:102FD000FDFD3DE0FA2200214FF4617000F0EEF8B3
:102FE00036E0FA2200214FF4617000F061F92FE021
:102FF00000F070F92CE04FF4AF7200214FF46170D3
:1030000000F09AF824E025E0FA2200214FF46170E4
:1030100000F092F81CE0322200214FF4617000F0C1
:103020008BF815E04FF4AF7200214FF46170FFF799
:10303000CDFD0DE0FA2200214FF46170FFF7C6FDCF
:1030400006E0322200214FF46170FFF7BFFD00BFA0
:1030500000BF0026BDE8F08110B56FF00400FEF758
:10306000CDFD0A4800680A49B0FBF1F00949087033
:103070000846007800EB4001C1EBC0104FF6FF712D
:1030800001EAC0000449088010BD000000000020D3
:1030900000127A00280000202A0000200146114A70
:1030A00012884A434FF0E0235A6100229A611A467F
:1030B000126942F001021A6100BF4FF0E02210696C
:1030C00000F001021AB100F48032002AF5D04FF06E
:1030D000E022126922F001024FF0E0231A6100227F
:1030E0009A6170472A00002000BF054A128802F04A
:1030F0004002002AF9D0C2B2014B1B1D1A80704752
:10310000003801400120084908600849C1F89C01C5
:10311000074908600020091D0860091D086001209A
:103120000449C1F8BC0170479801214200002142C6
:10313000B08121420080214270B505460E461446FA
:1031400031462846FEF7D8FE03480480001D04805F
:10315000FFF7D8FF70BD00003404004008B54FF4FD
:10316000A060FEF77DFB36208DF8000000208DF872
:1031700001008DF8020001208DF803006846FEF77B
:1031800037FB08BD00200949086001200849C1F843
:103190009C01002007490860091D0860091D08609E
:1031A00001200549C1F8BC01704700009801214287
:1031B00000002142B08121420080214270B50546C5
:1031C0000E46144631462846FEF796FE0348048014
:1031D000001D0480FFF7D6FF70BD000034040040DE
:1031E000FFF73AFF4FF4A060FEF73AFBFEF774FAE0
:1031F0004FF4165000F086F8FEF7FAFBFEF7A6F83B
:10320000FEF71AFAFEF79CFA4FF4165000F0CAF8CF
:10321000FEF786F901210EA0FDF70AF817E0124823
:103220000278124801780120FFF744FEFFF74AFBBD
:103230004FF4FA70FFF732FF01200D4908604FF498
:10324000FA70FFF72BFF00200A49C1F8A001E6E75A
:103250002564BAC5B3ACC9F9B2A8BFAACABCBCEC54
:10326000B2E20A0A000000004000002041000020F5
:10327000A0012142000021420120094908600020EC
:103280000849C1F89C010120074908600020091D78
:103290000860091D08600549C1F8BC0170470000BD
:1032A0009801214200002142B08121420080214248
:1032B00070B505460E46144631462846FEF71CFEFC
:1032C00003480480001D0480FFF7D6FF70BD000096
:1032D000340400400020074908600749C1F89C01F8
:1032E00006490860091D0860091D08600449C1F805
:1032F000BC0170479801214200002142B081214267
:103300000080214210B586B00446012144F2040039
:10331000FEF7E4FA4FF40070ADF8140003208DF8C6
:10332000160018208DF8170005A91C48FEF74FF865
:103330004FF48060ADF8140004208DF8170005A943
:103340001648FEF744F825208DF8000003208DF87C
:1033500001008DF8020001208DF803006846FEF799
:1033600047FA01940020ADF80800ADF80A00ADF866
:103370000C00ADF810000C20ADF80E0001A90848B3
:10338000FFF772FB012240F225510548FFF746FB8B
:1033900001210348FFF7FFFA06B010BD0008014005
:1033A0000038014010B586B0044601210420FEF724
:1033B00095FA01214804FEF771FA0420ADF81400D3
:1033C00003208DF8160018208DF8170005A91C4859
:1033D000FDF7FDFF0820ADF8140004208DF817005C
:1033E00005A91748FDF7F3FF26208DF800000320FC
:1033F0008DF801008DF8020001208DF80300684669
:10340000FEF7F6F901940020ADF80800ADF80A00C7
:10341000ADF80C00ADF810000C20ADF80E0001A9BD
:103420000848FFF721FB012240F225510548FFF72C
:10343000F5FA01210348FFF7AEFA06B010BD00000F
:10344000000801400044004010B500290AD0087867
:10345000002807D005487844FDF77AFB002801D002
:10346000002010BD0248784410BD0000560700003F
:103470004E07000021F00042A2F16052B2F5801F19
:1034800001F0004328BFD2F17F6C0BD95FEA001C2A
:1034900043EAC20242EB507018BF704728BF20F0C9
:1034A00001007047B2F5801FBCBF184670474FEA55
:1034B000410C1CF5001F02D2084600F0A0BA70B5FE
:1034C00000F062F900000089FFF7F6BF4FF00040FE
:1034D000A0F58000704700002DE9C04130B4DFF84E
:1034E000A0C23CEA111418BF3CEA131400F0EC80AF
:1034F00081EA03051CEA111444EAD57418BF1CEADA
:10350000131500F0C780A4EB05044FF0004545EA11
:10351000C12145EAC32341EA505143EA525304F121
:103520007F74994204F500344FEAC0204FEAC2226A
:1035300008BF904200F09C804FEA13650FF24016DE
:10354000765D4FEA134506FB05F7C7F1807706FB6A
:1035500007F74FEAD737A7FB03687642C8F58038EC
:10356000A7FB06CE38BFA8F1010807FB08E64FF01D
:10357000000EA6FB028CE6FB03CEDCF1000CCEF1C4
:10358000004E38BFAEF1010EA6FB0C584FF00007FD
:103590004FF00005E6FB0E87A1FB08C6A0FB07CE97
:1035A00016EB0E0645F10005E1FB076515F1E04E4F
:1035B0007EBFA4F580345FEA46066D4116F18007B0
:1035C00045F100054FEA17274FEA066647EA056707
:1035D000A6F1DE46B6F1805F4FEA15251FD93846C1
:1035E00024F0010C05EBC471BCF1FE6F01EB0C1172
:1035F00002D8F0BCBDE8008124425CBF01F5801E0A
:103600009EEAC47F02D4F0BCBDE80081244238D4D5
:10361000F0BCA1F1C041BDE8004100F003B94FEAA0
:10362000D22242EA43524FEAD323A7FB02864FEA53
:10363000D02040EA415007FB03661EEA0E0F4FEA16
:10364000D12105FB026658BFA6EB0056B6EB00562B
:103650004FEA520E4EEAC37E18EB0E0E56EB530E97
:10366000BDD518EB02085E417F1C55F10005B6E799
:103670004FF480154FF000074FF000064FF00008A0
:10368000ADE7F0BC4FF0000001F1C04101F0004196
:10369000BDE8008111EA0C1F0CEA131500D00CE004
:1036A00013EA0C1F00F025804FF00000F0BC81EA07
:1036B000030101F00041BDE80081F0BCBDE800411C
:1036C00081EA030100F0AEB8F0BCBDE8004170B57E
:1036D00000F05AF8097EFC3E00F007B881EA0301C9
:1036E0004FF0000001F00041704781EA030100F053
:1036F00099B8F0BCBDE800414FF000002149704787
:10370000FFFDFBF9F7F5F4F2F0EEEDEBE9E8E6E4A6
:10371000E3E1E0DEDDDBDAD8D7D5D4D3D1D0CFCD2D
:10372000CCCBCAC8C7C6C5C4C2C1C0BFBEBDBCBB66
:10373000BAB9B8B7B6B5B4B3B2B1B0AFAEADACAB61
:10374000AAA9A8A8A7A6A5A4A3A3A2A1A09F9F9E3B
:103750009D9C9C9B9A9999989797969595949393ED
:10376000929191908F8F8E8E8D8C8C8B8B8A898984
:103770008888878786858584848383828281818007
:103780000000FF070000F87F0EF1020E2EF0030E7E
:103790005EF8046B364205D4012A43EB030515F5A8
:1037A000001F12D8012841EB010C1CF5001F0CD89A
:1037B0000ED14FEAD17C15F5001F0CEB4C0C0CF12F
:1037C000020C08BF4CEBD37C04E04FF0080C01E086
:1037D0004FEAD37C0CEB4C0526FA05F606F00706FB
:1037E000B6F1040C06D20EEB860CBDE870404CF02E
:1037F000010C6047DFE80CF0090B02024FF00041BA
:103800004FF00000A1F5002170BD194610460128B7
:1038100051EB010418BFD4F5001484BF002001F05F
:10382000004170BD0808A0F500114FEA3101704752
:1038300043004FEAD30C4FEA3C0C43401FBF400704
:103840000CF1605113F0FE4F70471CF0006F03D174
:1038500000200CF0004170470CF0004343EA507028
:1038600010B540EACC0000F084F800BF00000092E0
:103870004FEA0001FFF7D6BF4FF000414FF00000C4
:10388000A1F500217047000090EA010F48BF81F0C8
:10389000004100F1C080421A3CBF801A89184FEAEB
:1038A000D0524FF07F4C1CEA410FA2EBD15318BF0E
:1038B0009CEA026F00F03B804FF0004C4CEA002085
:1038C0004CEA012121FA03FC10EB0C0C1ED202F190
:1038D000FF325FEA1C2040EBC25038BF70471CF03B
:1038E0007F0F4FEA400C18BFBCF17F4F38BF7047C5
:1038F000C3F12003994008BF20F00100BCF17F4FC5
:1039000038BF7047A0F1C04000F079B84FEA3C00E2
:10391000000A40EBC25028BF1CF0FF0F4FEA400CDA
:10392000E6D018BFBCF17F4F38BF7047EAE79CEA8A
:10393000026F05D010EA5C0F08BF00F0004070472E
:1039400010B500F016F800BF64FBBE3EB0FA80F37D
:1039500010FA03F2C3F19D030AD0D90501EB12203E
:10396000530638BF704700F1010008BF20F0010086
:1039700070470EF1020E2EF0030E5EF8044B244247
:1039800004D44FEA4102B2F17F4F11D84FEA40030D
:10399000B3F17F4F0CD80ED14FEAD07CB2F17F4FFC
:1039A0000CEB4C0C0CF1020C08BF4CEBD17C04E08E
:1039B0004FF0080C01E04FEAD17C0CEB4C0324FAE9
:1039C00003F404F00704B4F1040C06D20EEB840CEB
:1039D000BDE810404CF0010C6047DFE80CF0070830
:1039E00002024FF00040A0F5800010BD08464200E2
:1039F00018BFD2F1807288BF00F0004010BDFF21D7
:103A000041EAD050C005704790EA010F48BF81F0ED
:103A100000413FF540AF421A04D882F00042A0EBCB
:103A2000020011444FEAD0524FF07F4C1CEA410F84
:103A3000A2EBD15318BF9CEA026F4AD04FF0004C62
:103A40004CEA00204CEA012121FA03FCB0EB0C0CFB
:103A50000FD412F0FE0F36D05FEA4C001DD50012D5
:103A600040EBC25038BF70471CF03F0F18BF704783
:103A70000BE0A2F101025FEA1C2040EBC25038BF0C
:103A800070471CF07F0F18BF7047C3F120039940A7
:103A900014BF401E20F00100704780084FEA122337
:103AA00008BF7047B0FA80FCA2EB0C02CCF1280CE6
:103AB00060FA0CF093EA122F04BF00EBC25070477B
:103AC0004FEAC3707047130A5FEADC1008BF704703
:103AD000F6E79CEA026F04D010EA5C0F08BF0020F2
:103AE000704710B5FFF745FF40DFF63E81F000401C
:103AF0007047FCF7A0BD000002400000000000A0DD
:103B00000000000005400000000000C800000000A8
:103B10000C4000000000409C000000001940000024
:103B20000020BCBE0000000034400000BFC91B8E56
:103B300000000004B5400000504BCFD06607E2CF34
:103B4000010000006C4100003E8251AADFEEA73464
:103B500001000000D9420000DCB5A0E23A301F9716
:103B6000FFFFFFFFB4450000FD25A0C8E9A3C14F3A
:103B7000FFFFFFFFFF3F000000000080000000008B
:103B8000FF3F00000000008000000000C83B00086C
:103B900000000020440000006C0100080C3C0008FC
:103BA00044000020F4070000880100081C00000009
:103BB00043000000F8FFFFFF0C0000000E000000B3
:103BC0000F0000002E00000000A24A0400000000C8
:103BD00000000000010203040607080900000000BD
:103BE000010203040102030406070809020406088F
:103BF00000000000000000000000000000000000C5
:0C3C0000000000000000000000000000B8
:04000005080001ED01
:00000001FF
